:020000040800F2
:10000000080400209D010008A5010008A7010008C0
:10001000A9010008AB010008AD01000800000000C4
:10002000000000000000000000000000AF01000818
:10003000B101000800000000B3010008B50100088C
:10004000B7010008B7010008B7010008B7010008B0
:10005000B7010008B701000851070008B701000800
:10006000B7010008B7010008B7010008B701000890
:10007000B7010008B7010008B7010008B701000880
:10008000B7010008B7010008B7010008B701000870
:10009000B7010008B7010008B7010008B701000860
:1000A000B7010008B7010008B7010008B701000850
:1000B000B7010008B7010008B7010008B701000840
:1000C000B7010008B7010008B7010008B701000830
:1000D000B7010008B7010008B7010008B701000820
:1000E000B7010008B7010008B7010008B701000810
:1000F000B7010008B7010008B7010008B701000800
:10010000B7010008B7010008B7010008B7010008EF
:10011000B7010008B7010008190A0008B701000874
:10012000B7010008B7010008B7010008B7010008CF
:10013000B7010008B7010008B7010008B7010008BF
:10014000B7010008B7010008B7010008B7010008AF
:10015000B7010008B7010008B7010008B70100089F
:10016000B7010008B7010008B7010008B70100088F
:10017000B7010008B7010008B7010008B70100087F
:10018000B7010008B7010008DFF80CD000F0CEFA84
:10019000004800471D0E000808040020064880475C
:1001A00006480047FEE7FEE7FEE7FEE7FEE7FEE75C
:1001B000FEE7FEE7FEE7FEE7B10900088901000857
:1001C0002DE9FE4F804681EA0300C00F0C460090E7
:1001D00021F0004123F00045B8EB0200A94105D20F
:1001E0004046214690461C460B46024623F00040FE
:1001F000104347D0270DC7F30A00C3F30A510290FA
:10020000401A019040286BDAC3F3130040F4801BBE
:100210000098924620B10023D2EB030A63EB0B0B4C
:1002200001985946C0F14002504600F0BAF906461E
:100230000D4650465946019A00F0D2F910EB0800DD
:100240006141002487EA115284EAE7731A4340D0DF
:10025000009A62B3019A012A4FEA075215DC001B8B
:1002600061EB02014FF0004202EA0752CDE9004281
:10027000001C41F5801132462B4600F009FA03B00C
:10028000BDE8F08F40462146F9E7001B61EB020113
:10029000001C41F5801300185B412018A2F50017DF
:1002A00047EB030140EAD570B6196D4111E06D08C6
:1002B0004FEA360645EAC0754FEA0752001B61EB6C
:1002C0000201001C41F5801149084FEA3000001975
:1002D000514132462B4603B0BDE8F04F00F0C9B99A
:1002E0000098012240000023D0EB020263EBE07390
:1002F000009821464FEAE074B8EB000061EB04017E
:10030000E9E783F000435BE781F0004158E72DE91E
:10031000FE4F81EA030404F0004421F00041009400
:100320004FF0000B23F0004350EA01045ED052EA84
:1003300003045BD0C3F30A54C1F30A552C44A4F25E
:10034000F3340194A0FB0254C1F3130141F4801172
:10035000C3F3130343F4801301FB024400FB034E79
:10036000840A970A44EA815447EA8357A4FB076842
:1003700002958D0A05FB07854FEA932C04FB0C546C
:100380002705029D4FEA065847EA1637B5EB0805E0
:100390006EEB070C870E920E47EA811742EA831232
:1003A000A7FB0201B6EB0B0164EB00042B0D43EA43
:1003B0000C335E1844EB1C50DA465146E7FB020151
:1003C000C5F313044FEA0B3343EA14534FEA0432E4
:1003D000019C43EA0603A4F10C040294009CCDE9BD
:1003E00000B400F055F903B0BDE8F08F00200146DD
:1003F000F9E72DE9F04D81EA030404F0004B21F008
:10040000004514464FF0000A23F0004150EA05026F
:1004100020D054EA01021DD0C5F30A570246C5F3A5
:100420001303C1F31300C1F30A5640F4801543F4DB
:100430008013A7EB0608101BD64608F2FD3873EBB5
:10044000050002D308F1010801E092185B41B8F100
:10045000000F03DA00200146BDE8F08D00204FF4C4
:100460008011064684460EE0171B73EB050705D383
:10047000121B63EB050306434CEA010C49084FEAE3
:10048000300092185B4150EA0107EDD152EA0300B7
:1004900012D082EA040083EA0501084305D0101B4C
:1004A000AB4106D20122002306E000224FF00043B8
:1004B00002E06FF0010253101AEB06004CEB0851FA
:1004C00010EB0A0041EB0B01BDE8F04D00F0D1B894
:1004D0000EB5C10F80EAE0700844CA07002140F25F
:1004E00033438DE80E000A460B4600F0D1F803B006
:1004F00000BD0EB540F2334102910021CDE900115B
:100500000A460B4600F0C4F803B000BDC1F30A521E
:1005100010B5C1F3130140F2FF3341F480119A4248
:1005200001DA002010BD40F233439A42A2F2334276
:1005300003DC524200F044F810BD904010BD01F0C1
:10054000004330B421F0004150EA010206D00A0D08
:10055000A2F56072C1F31301002A02DC30BC002056
:100560007047440F44EAC104C100E01830BC00EBFE
:10057000C25000F047B830B50B460146002020229B
:10058000012409E021FA02F59D4205D303FA02F5A0
:10059000491B04FA02F52844151EA2F10102F1DC00
:1005A00030BD202A04DB203A00FA02F10020704717
:1005B0009140C2F1200320FA03F3194390407047A1
:1005C000202A04DB203A21FA02F00021704721FAA8
:1005D00002F3D040C2F1200291400843194670470F
:1005E000202A06DBCB17203A41FA02F043EAE073F7
:1005F00006E041FA02F3D040C2F1200291400843E4
:10060000194670470029A8BF7047401C490008BF21
:1006100020F00100704710B4B0FA80FC00FA0CF032
:1006200050EA010404BF10BC704749B1CCF120046A
:1006300021FA04F411FA0CF118BF012121430843F7
:10064000A3EB0C01CB1D4FEA00614FEA102042BF23
:10065000002010BC704700EBC35010440029A4BF19
:1006600010BC7047401C490008BF20F0010010BCBE
:10067000704710B5141E73F1000408DA401C41F1F4
:10068000000192185B411A4301D120F0010010BD16
:100690002DE9F04D92469B4611B1B1FA81F202E08C
:1006A000B0FA80F220329046FFF77BFF04460F46F7
:1006B00040EA0A0041EA0B0153465A46084313D068
:1006C000114653EA010019D0C8F140025046FFF725
:1006D00077FF05460E46504659464246FFF761FFF2
:1006E000084305D0012004E020463946BDE8F08DDE
:1006F0000020054346EAE0762C4337430A98630519
:10070000E40AA0EB08000022FD0A44EA47540A303C
:1007100002D500200146E9E7010510196941DDE92C
:10072000084500196941BDE8F04DA2E7064C074DA8
:1007300006E0E06840F0010394E8070098471034B1
:10074000AC42F6D3FFF724FDA80E0008C80E00083F
:100750001448006800F0010010B31248006840F02F
:100760000100104908601048006900F0010048B11C
:100770000E48008840F001000C49088000200C4918
:1007800008700DE00848006900F0010040B9074812
:10079000008820F001000549088001200449087004
:1007A00070470000143C014000000240001000406F
:1007B000000000202DE9F0413D48006840F00100B4
:1007C0003B4908603A481430006840F4804038499A
:1007D000143108603748006820F00F003549086080
:1007E0003548006840F0010033490860081D006882
:1007F00040F00100091D086006200522002425465E
:100800001346C3F1070CBCF1040F02D94FF0040CDE
:1008100001E0C3F1070C674603F1040CBCF1070FBC
:1008200002D24FF0000C01E0A3F1030C66464FF03A
:10083000010C0CFA07FCACF1010C0CEA040C0CFAEC
:1008400006FC4FF0010808FA06F8A8F1010808EACA
:1008500005084CEA080100BF002807DA0A07140E51
:10086000164A00F00F031B1FD45403E00A07130EAF
:10087000134A135400BF062001218140420992000F
:1008800002F1E022C2F8001100BF0B480C300068F2
:1008900040F0010008490C3108600748083800683A
:1008A00040F00100044908390860BDE8F08100000B
:1008B0003038024008380140083C014018ED00E0A3
:1008C00000E400E00CB5002001900090344800687E
:1008D00040F480303249086000BF3148006800F4BD
:1008E000003000900198401C0190009818B90198C0
:1008F000B0F5A04FF1D12A48006800F4003010B1E3
:100900000120009001E0002000900098012846D1CD
:1009100023484030006840F0805021494031086051
:100920002048006840F440401E4908601C480830D8
:1009300000681B49083108600846006840F4004020
:1009400008600846006840F4A05008601648091F77
:100950000860081F006840F08070091F086000BF31
:100960000F48006800F000700028F9D040F20570D0
:100970000E4908600A480830006820F00300084962
:10098000083108600846006840F00200086000BFB7
:1009900003480830006800F00C000828F8D10CBDAE
:1009A000003802400070004019544007003C0240EB
:1009B00010B51548006840F47000134908601348EA
:1009C000006840F001001149086000200F4908311B
:1009D00008600E4800680E4908400C4908600D4840
:1009E000091D0860081F006820F48020091F0860A6
:1009F000002006490C310860FFF764FF4FF00060EB
:100A000001498039086010BD88ED00E000380240DF
:100A1000FFFFF6FE103000240848008A00F00100B5
:100A200050B10648008A20F00100044908820448B9
:100A30000078401C02490870704700000010004018
:100A4000010000202DE9F0414248006840F010000C
:100A5000404908604048008840F080003E490880D6
:100A60000846008820F0080008800846008820F02A
:100A7000040008800846008820F00200088000205A
:100A8000486242F2CF00088542F21070C862084600
:100A9000808A40F0010088820846008A20F0010028
:100AA00008820846808940F00100888136200522AE
:100AB000002425461346C3F1070CBCF1040F02D9EC
:100AC0004FF0040C01E0C3F1070C674603F1040C7E
:100AD000BCF1070F02D24FF0000C01E0A3F1030CB0
:100AE00066464FF0010C0CFA07FCACF1010C0CEA65
:100AF000040C0CFA06FC4FF0010808FA06F8A8F1FD
:100B0000010808EA05084CEA080100BF002807DAD6
:100B10000A07140E114A00F00F031B1FD45403E000
:100B20000A07130E0E4A135400BF362000F01F02AE
:100B3000012191404209920002F1E022C2F8001125
:100B400000BF0548008820F0010003490880BDE887
:100B5000F0810000403802400010004018ED00E035
:100B600000E400E070B52DED068B05463B480068BB
:100B700040F00100394908603948006820F44020FD
:100B800040F40020364908600846406A20F0F00032
:100B900040F0700132484162006820F4401040F497
:100BA00000102F4908600846406A20F4706040F445
:100BB000E0612B48416229481430006840F0100081
:100BC0002649143108602748808920F400402549CF
:100BD00088810846808920F4805088810846008AF0
:100BE00020F4805008822801FFF783FC41EC1A0BA7
:100BF00053EC1A2B9FED1C0B51EC100BFFF7F9FB7C
:100C000041EC190BFFF79BFC08EE100ABDEEC80A79
:100C100010EE104A00EE104AB8EEC00A38EE400A54
:100C2000F3EE000A20EE200ABDEEC00A10EE106AB4
:100C300046EA04100B4908810846808940F0080004
:100C400088810846808940F00400888108468089B0
:100C500040F400508881BDEC068B70BD30380240F6
:100C6000000002400010014000000000F406944122
:100C70000FB4054B10B503A9044A029800F018F808
:100C800010BC5DF814FB0000050E000804000020F5
:100C900002E008C8121F08C1002AFAD17047704745
:100CA000002001E001C1121F002AFBD170470000A3
:100CB0002DE9FF4F89B09B460446002506E0252814
:100CC0000BD05A460B999047641C6D1C2078002865
:100CD000F5D10DB02846BDE8F08F0027B8460122B7
:100CE000474900E0074314F8013F203B02FA03F0B4
:100CF0000842F7D120782E2819D114F8010F47F0B7
:100D000004072A280ED06FF02F022078A0F13001BE
:100D100009290CD808EB880102EB410100EB01081E
:100D2000641CF2E70A98641C50F8048B0A9020783F
:100D30000028CED0642808D0692806D075281ED097
:100D40005A460B9990476D1C58E00A994FF00A09D2
:100D500001C90A91002802DA40422D2102E039053A
:100D600004D52B218DF82010012103E0F90704D0D0
:100D70002021F7E78A4608AE0DE00021FAE70A993C
:100D80004FF00A0901C90A91F7E74946FFF7F3FB5B
:100D9000303106F8011D0028F7D1ADEB060000F157
:100DA0002009780701D44FF00108C84502DDA8EBFF
:100DB000090000E000208046002706E008A85A4607
:100DC000C05D0B9990476D1C7F1C5745F6DB04E016
:100DD00030205A460B9990476D1CB8F10001A8F1DC
:100DE0000108F5DC05E016F8010B5A460B9990470F
:100DF0006D1CB9F10001A9F10109F4DC641C65E77F
:100E00000928010000BF044A128802F08002002A6B
:100E1000F9D0014B98807047001001402DED088BF0
:100E2000FFF7C8FC4FF4E130FFF79CFEFFF70AFE26
:100E30002BE016480078012827D100BF0020134975
:100E400008701349486AFFF754FB9FED120B53ECEF
:100E5000102BFFF75CFA41EC190B104909784FF49D
:100E60007A7211FB02F0FFF733FB53EC192BFFF7FB
:100E7000A7F9FFF74BFB0446002008490870044916
:100E80004862214606A0FFF7F3FED2E700000020EB
:100E9000001000409A9999999999B93F0100002052
:100EA00025640D0A00000000C80E000800000020A4
:100EB00008000000900C0008D00E00080800002078
:100EC00000040000A00C000800000000000000006A
:040000050800018965
:00000001FF
