:020000040800F2
:10000000500400209D010008A5010008A701000878
:10001000A9010008AB010008AD01000800000000C4
:10002000000000000000000000000000AF01000818
:10003000B101000800000000B3010008B50100088C
:10004000C90F0008B7010008B7010008050B000838
:10005000B7010008B701000885050008B7010008CE
:10006000B7010008B7010008B7010008B701000890
:10007000B7010008B7010008B7010008B701000880
:10008000B7010008B7010008B7010008B701000870
:10009000B7010008B7010008B7010008B701000860
:1000A000B7010008B7010008B7010008B701000850
:1000B000B7010008B7010008B7010008B701000840
:1000C000B7010008B7010008B7010008B701000830
:1000D000B7010008B7010008B7010008B701000820
:1000E000B701000811080008B7010008B7010008AF
:1000F000B7010008B7010008B7010008B701000800
:10010000B7010008B7010008B7010008B7010008EF
:10011000B7010008B7010008910E0008B7010008F8
:10012000B7010008B7010008B7010008B7010008CF
:10013000B7010008B7010008B7010008B7010008BF
:10014000B7010008B7010008B7010008B7010008AF
:10015000B7010008B7010008B7010008B70100089F
:10016000B7010008B7010008B7010008B70100088F
:10017000B7010008B7010008B7010008B70100087F
:10018000B7010008B7010008DFF80CD000F068F9EB
:1001900000480047811300085004002006488047AB
:1001A00006480047FEE7FEE7FEE7FEE7FEE7FEE75C
:1001B000FEE7FEE7FEE7FEE7290E000889010008DA
:1001C00010B5002200E0521C835C8C5CA34201D17C
:1001D000002BF8D1D8B2E1B2401A10BD2DE9F04D94
:1001E00081EA030404F0004B21F0004514464FF06F
:1001F000000A23F0004150EA050220D054EA01022F
:100200001DD0C5F30A570246C5F31303C1F313000B
:10021000C1F30A5640F4801543F48013A7EB060897
:10022000101BD64608F2FD3873EB050002D308F127
:10023000010801E092185B41B8F1000F03DA0020D9
:100240000146BDE8F08D00204FF48011064684463B
:100250000EE0171B73EB050705D3121B63EB0503B9
:1002600006434CEA010C49084FEA300092185B4102
:1002700050EA0107EDD152EA030012D082EA0400ED
:1002800083EA0501084305D0101BAB4106D20122C9
:10029000002306E000224FF0004302E06FF001026D
:1002A00053101AEB06004CEB085110EB0A0041EB1F
:1002B0000B01BDE8F04D00F076B80EB540F23341C9
:1002C00002910021CDE900110A460B4600F07AF8B0
:1002D00003B000BD01F0004330B421F0004150EA0A
:1002E000010206D00A0DA2F56072C1F31301002AC3
:1002F00002DC30BC00207047440F44EAC104C10056
:10030000E01830BC00EBC25000F016B830B50B4618
:10031000014600202022012409E021FA02F59D4235
:1003200005D303FA02F5491B04FA02F52844151E09
:10033000A2F10102F1DC30BD0029A8BF7047401CCA
:10034000490008BF20F00100704710B4B0FA80FCEB
:1003500000FA0CF050EA010404BF10BC704749B128
:10036000CCF1200421FA04F411FA0CF118BF012198
:1003700021430843A3EB0C01CB1D4FEA00614FEA78
:10038000102042BF002010BC704700EBC350104447
:100390000029A4BF10BC7047401C490008BF20F0D2
:1003A000010010BC704710B5141E73F1000408DA88
:1003B000401C41F1000192185B411A4301D120F029
:1003C000010010BD2DE9F04D92469B4611B1B1FAE6
:1003D00081F202E0B0FA80F22032904600F052F84A
:1003E00004460F4640EA0A0041EA0B0153465A46CA
:1003F000084313D0114653EA010019D0C8F1400256
:10040000504600F04EF805460E46504659464246C4
:1004100000F038F8084305D0012004E020463946B2
:10042000BDE8F08D0020054346EAE0762C433743D3
:100430000A986305E40AA0EB08000022FD0A44EADA
:1004400047540A3002D500200146E9E7010510199A
:100450006941DDE9084500196941BDE8F04DA2E7B1
:10046000064C074D06E0E06840F0010394E8070001
:1004700098471034AC42F6D3FFF78AFE0814000800
:1004800028140008202A04DB203A00FA02F1002098
:1004900070479140C2F1200320FA03F319439040C2
:1004A0007047202A04DB203A21FA02F0002170472D
:1004B00021FA02F3D040C2F12002914008431946CC
:1004C000704710B5034610210A22002003E00901FD
:1004D00002EB820462008B42F9D209090A24B2FBC2
:1004E000F4F209E0B3FBF1F404F00F0404FB0200A2
:1004F00009090A24B2FBF4F20029F3D110BD70B54A
:1005000003460A211022002003E001EB8104610070
:1005100012018B42F9D20A24B1FBF4F112090CE06A
:10052000B3FBF1F40A25B4FBF5F605FB164404FB16
:1005300002000A24B1FBF4F112090029F0D170BDC8
:1005400000B5034603E04FF47A7000F005F8181E7A
:10055000A3F10103F7D100BD542141434FF0E02244
:100560005161002191610521116100BF4FF0E0212F
:10057000096901F480310029F8D004214FF0E0220C
:10058000116170471448006800F0010010B3124870
:10059000006840F00100104908601048006900F050
:1005A000010048B10E48008840F001000C49088065
:1005B00000200C4908700DE00848006900F00100B7
:1005C00040B90748008820F0010005490880012053
:1005D0000449087070470000143C014000000240CC
:1005E00000100040000000202DE9F04105460E46B5
:1005F000174698460B480468C4F30740FFF761FFAD
:100600002870C4F30420FFF75CFF307004F03F0053
:10061000FFF757FF3870C4F3423088F80000BDE898
:10062000F081000004280040F0B505460E4617464C
:1006300008480468C4F30540FFF743FF2870C4F37B
:100640000620FFF73EFF307004F07F00FFF739FF10
:100650003870F0BD0028004000F01F0201219140D9
:100660004209920002F1E022C2F800117047F0B591
:1006700003460C4603F00701C1F10700042801D925
:10068000042001E0C1F107000646081D072801D239
:10069000002000E0C81E05460120B040401E20405A
:1006A000A8400127AF407F1E17403843F0BD00002F
:1006B00010B5002807DA0A07140E054A00F00F03E8
:1006C0001B1FD45403E00A07130E024A135410BD33
:1006D00018ED00E000E400E070B5CA204A49086067
:1006E0005320086048481838006840F080004649A8
:1006F00018390860002409E0601C84B20120FFF76B
:100700001FFF41F28830844200DD70BD3E4818383A
:10071000006800F040000028EED03B481C3800681C
:1007200020F4807038491C390860002409E0601CFE
:1007300084B20120FFF704FF41F28830844200DDDB
:10074000E3E731481838006800F001000028EED0D7
:100750002D480838006840F000402B4908390860EF
:100760000846006840F4000008600846006840F44D
:10077000004008600846006820F0800008600846D5
:10078000006820F00F00401D08602048006840F419
:1007900000301E4908601D480830006840F40030F1
:1007A0001A490831086018481C38006840F4805025
:1007B00015491C390860002211460520FFF757FF34
:1007C000054629462920FFF773FF2920FFF744FF3C
:1007D0000E481430006840F400300C4914310860B1
:1007E00009481C38006840F4807007491C390860CB
:1007F000081D006820F08000091D086033200249B0
:10080000086000BF81E7000024280040003C014050
:1008100010B50D48006800F4003098B10A4800682F
:1008200040F40030084908600848006820F48070EF
:10083000064908600846006820F48060086004A04B
:1008400000F0D0FB10BD0000143C01400C2800401B
:10085000416C61726D5F49525148616E646C6572A2
:100860000D0A00003EB500249248006866287DD03D
:100870009148006840F080508F4908608F480068B8
:1008800040F480708D4908608B483030006840F437
:1008900080708949303108600846006840F00100E6
:1008A00008600AE0601C84B20120FFF749FE41F2B3
:1008B0008830844201DD02203EBD7F483030006830
:1008C00000F002000028EDD07B483030006840F492
:1008D0000040794930310860CA2076492C390860D7
:1008E0005320086073484438006840F08000714924
:1008F0004439086000240AE0601C84B20120FFF73C
:100900001FFE41F28830844201DD0220D4E76948AD
:100910004438006800F040000028EDD065484038B9
:10092000006840F0FF0063494039086008460068ED
:1009300040F4FE0008605F484838006820F040003E
:100940005C49483908605E48006841785C48006846
:100950000078303800EB800001EB40003038594916
:100960000870574800680179554800E094E0006835
:10097000C078303800EB800001EB4000303852493D
:1009800008704F480068C1794D4800688079303858
:1009900000EB800001EB400030384C4908704C48B7
:1009A0000068817A4A480068407A303800EB80005D
:1009B00001EB40003038474908704548006800782E
:1009C00045490870424800684078487040480068CF
:1009D000807888700020C87000250BE03F4850F8F0
:1009E00025103D48FFF7ECFB10B9681C3C49087026
:1009F000681CC5B20C2DF1DB354800680079202851
:100A00000ED03348006841793148006800793038A9
:100A100000EB800001EB400030383249087005E0FF
:100A20002B480068407930382E49087027480078F4
:100A300025490978234A1278CDE9002102902948F6
:100A40000378274802782348017827A000F0CAFAE3
:100A50001E4802781C4801781A48007800F0CEF948
:100A6000274803781F4802781D4801781948007804
:100A700000F0A4F90F484438006820F080000D49C8
:100A80004439086040F266600A4908603320094929
:100A90002C39086001200FE70C4A0B490948FFF781
:100AA000C3FD174B0F4A0E490A48FFF79DFD002072
:100AB00002E700005028004040380240007000402B
:100AC0000C0000200400002005000020060000208B
:100AD0001000002007000020440000201400002027
:100AE000080000200900002025642D25642D2564C0
:100AF000202025643A25643A25640D0A0000000090
:100B00000A0000200EB51748006800F4800040B3CA
:100B10001448006840F480001249086012480068D8
:100B200020F4806010490860104A11491148FFF70D
:100B30007BFD114B114A12491248FFF755FD0B4836
:100B400000780B4909780B4A1278CDE90021029010
:100B50000A4803780A4802780A4801780AA000F097
:100B600041FA0EBD143C01400C2800400600002054
:100B700005000020040000200A00002009000020D9
:100B80000800002007000020323025642D25303277
:100B9000642D253032642020253032643A253032ED
:100BA000643A253032640D0A0000000070B5CA2096
:100BB000454908605320086043481838006840F0F1
:100BC0008000414918390860002409E0601C84B2A3
:100BD0000120FFF7B5FC41F28830844200DD70BD92
:100BE00039481838006800F040000028EED0364838
:100BF0001C38006820F4806033491C3908600024E8
:100C000009E0601C84B20120FFF79AFC41F28830B1
:100C1000844200DDE3E72C481838006800F0040047
:100C20000028EED028481C38006820F00600001D7F
:100C300025491C39086000202349103908602348E1
:100C4000006840F4800021490860204808300068AE
:100C500040F480001D49083108601B481C380068BA
:100C600040F4804018491C39086000220121052009
:100C7000FFF7FDFC054629460320FFF719FD032079
:100C8000FFF7EAFC11481430006840F480000F4977
:100C9000143108600C481838006820F480600A4954
:100CA00018390860081F006840F48060091F086058
:100CB000081D006820F08000091D086033200249EB
:100CC000086000BF8BE7000024280040003C014082
:100CD0000CB50020019000903448006840F480304A
:100CE0003249086000BF3148006800F400300090CD
:100CF0000198401C0190009818B90198B0F5A04FD8
:100D0000F1D12A48006800F4003010B101200090B1
:100D100001E0002000900098012846D1234840308F
:100D2000006840F080502149403108602048006848
:100D300040F440401E4908601C48083000681B49C8
:100D4000083108600846006840F400400860084622
:100D5000006840F4A05008601648091F0860081F8A
:100D6000006840F08070091F086000BF0F480068ED
:100D700000F000700028F9D040F205700E490860BC
:100D80000A480830006820F003000849083108606C
:100D90000846006840F00200086000BF03480830C1
:100DA000006800F00C000828F8D10CBD00380240A3
:100DB0000070004019544007003C02402DE9F0410A
:100DC00007460C4615461E463846FFF798FB4FEA85
:100DD00000482046FFF793FB48EA00282846FFF723
:100DE0008EFB48EA00083046FFF789FB48EA4030AE
:100DF00001490860BDE8F08104280040F0B50646CE
:100E00000C4615463046FFF77AFB07042046FFF7ED
:100E100076FB47EA00272846FFF771FB07430148A6
:100E20000760F0BD0028004010B51548006840F488
:100E30007000134908601348006840F00100114930
:100E4000086000200F49083108600E4800680E490C
:100E500008400C4908600D48091D0860081F00681B
:100E600020F48020091F0860002006490C3108602A
:100E7000FFF72EFF4FF0006001498039086010BD78
:100E800088ED00E000380240FFFFF6FE103000243D
:100E90000848008A00F0010050B10648008A20F09E
:100EA00001000449088204480078401C0249087087
:100EB00070470000001000400100002070B52DEDCB
:100EC000068B05463B48006840F001003949086040
:100ED0003948006820F4402040F40020364908607A
:100EE0000846406A20F0F00040F07001324841624C
:100EF000006820F4401040F400102F4908600846B4
:100F0000406A20F4706040F4E0612B484162294857
:100F10001430006840F0100026491431086027485A
:100F2000808920F40040254988810846808920F482
:100F3000805088810846008A20F480500882280169
:100F4000FFF7BBF941EC1A0B53EC1A2B9FED1C0B6E
:100F500051EC100BFFF742F941EC190BFFF7BAF90E
:100F600008EE100ABDEEC80A10EE104A00EE104A54
:100F7000B8EEC00A38EE400AF3EE000A20EE200A6E
:100F8000BDEEC00A10EE106A46EA04100B49088153
:100F90000846808940F0040088810846808940F036
:100FA000080088810846808940F400508881BDECA3
:100FB000068B70BD30380240000002400010014036
:100FC00000000000F40694410548006800F00100AC
:100FD00028B10348006820F001000149086070470B
:100FE000082C00400FB4054B10B503A9044A029821
:100FF00000F018F810BC5DF814FB0000691300083D
:101000004800002002E008C8121F08C1002AFAD1D7
:1010100070477047002001E001C1121F002AFBD178
:10102000704700002DE9FF4F8BB08846054600262B
:1010300006E025280BD0DDE90D1290476D1C761CCB
:1010400028780028F5D10FB03046BDE8F08F002495
:10105000A146A2460122AE4900E0044315F8013F33
:10106000203B02FA03F00842F7D128782A2810D052
:101070006FF02F022878A0F13001092915D809EB6B
:10108000890102EB410144F0020400EB01096D1CEF
:10109000F0E758F8041B5FEA010903D544F4005453
:1010A000C9F1000944F002046D1C28782E2817D1DC
:1010B00015F8010F44F004042A280ED06FF02F0217
:1010C0002878A0F1300109290AD80AEB8A0102EB3D
:1010D000410100EB010A6D1CF2E758F804AB6D1CEE
:1010E00028786C280FD006DC4C2817D068280DD043
:1010F0006A2814D104E0742810D07A280FD10DE0AA
:1011000044F400140AE044F4801401E044F4401470
:101110006978814202D104F580146D1C6D1C287819
:10112000692865D006DC00288DD0632827D0642884
:1011300006D15DE06E2808D073282AD0752877D0B4
:10114000DDE90D129047761CE0E0C4F3025002285E
:1011500009D003280DD0D8F8001004280DD00E6057
:1011600008F10408D2E0D8F80010F217C1E90062D3
:10117000F6E7D8F800100E80F2E70E70F0E718F8E6
:10118000041B8DF8001000208DF80100EB460120B3
:1011900003E058F804BB4FF0FF3061074FF0000741
:1011A00001D40AE07F1C57450DDA8742FADB1BF8B1
:1011B00007100029F6D106E07F1C8742FCDB1BF8F4
:1011C00007100029F8D1DDE90D23A9EB07008146BE
:1011D000214600F0B1F83044C61904E0DDE90D12F3
:1011E0001BF8010B90477F1EF8D22146484688E045
:1011F00058F8040BC4F302514FF00A0B032900D135
:1012000000B2042900D140B2002802DA40422D2168
:1012100002E0210505D52B218DF82410012104E0E1
:1012200006E0E10710D02021F6E708AF089113E0AF
:1012300058F8040BC4F302514FF00A0B032900D1F4
:1012400080B2042900D1C0B20021EEE75946FFF771
:101250005DF8303107F8011D0028F7D1ADEB07002C
:1012600000F1200B600702D524F4803401E04FF038
:10127000010ADA4502DDAAEB0B0000E000208246FD
:1012800000EB0B0108980144A9EB01000A90E00370
:1012900006D4DDE90D2321460A9800F04DF80644F6
:1012A0004FF0000908E009A911F80900DDE90D1265
:1012B000904709F10109761C08998945F3DBE003A1
:1012C0000CD5DDE90D2321460A9800F035F80644D7
:1012D00004E0DDE90D1230209047761CBAF10001E0
:1012E000AAF1010AF5DC05E0DDE90D1217F8010BA2
:1012F0009047761CBBF10001ABF1010BF4DC0A98BE
:101300002146DDE90D2300F005F806446D1C97E643
:10131000092801002DE9F041044600251E46174624
:10132000880404D405E039462020B0476D1C641EB3
:10133000F9D52846BDE8F0812DE9F04104460025A5
:101340001E469046C80301D5302700E020278804B8
:1013500004D505E041463846B0476D1C641EF9D5FA
:101360002846BDE8F081000000BF044A128802F060
:101370008002002AF9D0014B98807047001001408C
:101380004FF4E130FFF79AFDFFF76CFA012803D123
:1013900006A0FFF727FE02E007A0FFF723FEFFF7F6
:1013A0009BF9FFF703FC00BFFEE700005375636382
:1013B0006573730D0A0000004661696C0D0A000038
:1013C0004D617220203220323032340031343A30D4
:1013D000353A31360000000046656200446563001E
:1013E000417567004A756C004A616E004A756E006F
:1013F000536570004D617200417072004F6374005C
:101400004E6F76004D61790028140008000000201E
:101410004C00000004100008741400084C00002068
:101420000404000014100008000000000000000088
:1014300000000000CC130008C0130008E8130008E7
:10144000D8130008F4130008F81300080414000867
:10145000EC130008E4130008E0130008F013000880
:10146000FC13000800140008DC1300080000000052
:041470000000000078
:040000050800018965
:00000001FF
